:100000000C946D000C9495000C9495000C94950044
:100010000C9495000C9495000C9495000C9495000C
:100020000C9495000C9495000C9495000C949500FC
:100030000C9495000C9495000C9495000C949500EC
:100040000C9496020C9495000C94A0070C947A07DB
:100050000C9495000C9495000C9495000C949500CC
:100060000C94E0020C949500330A580A7D0AA20A07
:10007000C70AEC0A110B360B5B0B800B000000006B
:10008000240027002A000000000023002600290089
:1000900000000000250028002B00040404040404D0
:1000A0000404020202020202030303030303010227
:1000B00004081020408001020408102001020408F6
:1000C00010200000000800020100000304070000E7
:1000D000000000000000340CD80811241FBECFEF30
:1000E000D8E0DEBFCDBF24E0A4E0B2E001C01D92A5
:1000F000A234B207E1F712E0A0E0B1E0EAE6FEE1E7
:1001000002C005900D92A430B107D9F710E0CCE6FB
:10011000D0E004C02197FE010E94160DCB36D10716
:10012000C9F70E94E8080C94280F0C940000FC0109
:10013000918D228D892F90E0805C9F4F821B9109C9
:100140008F739927089580E090E0892B29F00E9411
:10015000BB0681110C94000008953FB7F89480917C
:10016000960290919702A0919802B091990226B5BB
:10017000A89B05C02F3F19F00196A11DB11D3FBFDF
:10018000BA2FA92F982F8827820F911DA11DB11D6D
:10019000BC01CD0142E0660F771F881F991F4A9569
:1001A000D1F7089585ED8093BC008091BC0084FD5B
:1001B000FCCF10929C02089540914802262F30E017
:1001C000240F311D21323105DCF420919C022430B2
:1001D000C9F4FC0180E090E0861758F430914802A1
:1001E0002191DC01AA5DBD4FA30FB11D2C93019697
:1001F000F3CF80914802680F6093480280E0089531
:1002000081E0089582E00895089581E090E03091C2
:10021000A00220919F02321710F480E090E09195A7
:100220008195910908958091A00290919F0289176C
:1002300030F48F5F8093A00280E090E008958FEF0C
:100240009FEF089580919F0290E02091A002821B71
:1002500091090895CF92DF92EF92FF920F931F932F
:10026000CF93DF937C01262F972F8A01809125025F
:10027000882391F0C62FD72F6E01C40ED51ECC1542
:10028000DD0571F06991D701ED91FC910190F0814C
:10029000E02DC7010995F3CF642F822F0E94DC0067
:1002A000C801DF91CF911F910F91FF90EF90DF90E8
:1002B000CF900895CF93DF931F92CDB7DEB76983B8
:1002C000209125022223D1F020919D02203240F07E
:1002D00021E030E0FC013383228380E090E015C010
:1002E00080919E02E82FF0E0EB5FFD4F99819083B3
:1002F0008F5F80939E0280939D0205C061E0CE01D6
:1003000001960E94DC0081E090E00F90DF91CF9198
:100310000895089580E090E00895FC01848DDF0148
:10032000A80FB11DA35ABF4F2C91848D90E0019668
:100330008F739927848FA689B7892C93A089B18957
:100340008C9180648C93938D848D981306C0028861
:10035000F389E02D80818F7D80830895833081F043
:1003600028F4813099F08230A1F008958730A9F007
:100370008830B9F08430D1F4809180008F7D03C043
:10038000809180008F7780938000089584B58F7767
:1003900002C084B58F7D84BD08958091B0008F77B1
:1003A00003C08091B0008F7D8093B0000895CF93FB
:1003B000DF93282F30E0F901EE53FF4F8491F901CC
:1003C000E255FF4FD491F901E656FF4FC491CC237B
:1003D00091F081110E94AE01EC2FF0E0EE0FFF1FB3
:1003E000EA57FF4FA591B491EC91ED2381E090E0A5
:1003F00021F480E002C080E090E0DF91CF91089589
:10040000CF93DF93EC0188810E94D70121E0892BF3
:1004100009F420E029878885882311F081E02827C6
:100420002223D9F03FB7F8948091920290919302E1
:10043000A0919402B09195023FBF8E879F87A88BB1
:10044000B98B1F8A1E8A1C8A1D8A8E81882311F00F
:1004500020E02EC081E08E832BC08E899F89892B5E
:10046000E1F43FB7F8948091920290919302A091A9
:100470009402B09195023FBF4E855F856889798966
:10048000841B950BA60BB70B4A855B856C857D8518
:1004900084179507A607B70730F48E899F890197BF
:1004A000B9F61E8205C081E090E09F8B8E8BF5CF60
:1004B000822FDF91CF9108958F929F92AF92BF923A
:1004C000CF92DF92EF92FF926B017C010E94AD0010
:1004D0004B015C01C114D104E104F104F1F00E946C
:1004E000AD00DC01CB0188199909AA09BB09883E36
:1004F0009340A105B10570F321E0C21AD108E108CB
:10050000F10888EE880E83E0981EA11CB11CC1146E
:10051000D104E104F10419F7DDCFFF90EF90DF90F3
:10052000CF90BF90AF909F908F9008951F920F92A1
:100530000FB60F9211242F933F938F939F93AF93F6
:10054000BF938091920290919302A0919402B091F6
:1005500095023091910223E0230F2D3720F401966C
:10056000A11DB11D05C026E8230F0296A11DB11DD6
:10057000209391028093920290939302A09394020D
:10058000B09395028091960290919702A091980263
:10059000B09199020196A11DB11D8093960290938E
:1005A0009702A0939802B0939902BF91AF919F9147
:1005B0008F913F912F910F900FBE0F901F90189524
:1005C0001F920F920FB60F9211242F933F934F93C8
:1005D0005F936F937F938F939F93AF93BF93EF93AB
:1005E000FF938091B900887F803609F49CC068F53C
:1005F000883209F45BC090F4803109F454C038F4B7
:10060000882309F4F6C0883009F44DC0F6C088315B
:1006100009F44CC0803209F45DC0EFC0803409F4A5
:1006200068C048F4803309F455C0883309F0E5C048
:1006300080936D02D8C0803509F44FC0883509F425
:100640005DC0883409F0D9C0D6C0883909F4C7C064
:10065000A8F4883709F467C038F4883609F463C011
:10066000803709F460C0C9C0883809F4B8C080393F
:1006700009F45FC0803809F0C0C05BC0803B09F45A
:1006800086C038F4803A09F466C0883A09F47FC01D
:10069000B4C0803C09F4A7C0883C09F4A4C0883BDE
:1006A00009F48AC0AAC08091900210C090918F0274
:1006B00080918E02981770F5E0918F0281E08E0F85
:1006C00080938F02F0E0E259FD4F80818093BB0060
:1006D00085EC86C080936D028EC0E0918F0281E030
:1006E0008E0F80938F028091BB00F0E0E259FD4FA6
:1006F000808390918F0280918E026EC0E0918F0274
:1007000081E08E0F80938F028091BB00F0E0E25970
:10071000FD4F808380919B0281116DC081E08093A9
:100720009A0284EA61C083E080939C0210926C027A
:10073000CFCF80916C02803208F051C0E0916C0202
:1007400081E08E0F80936C028091BB00F0E0E45B4F
:10075000FD4F8083BDCF85EC8093BC0010929C023E
:1007600080916C02803230F4E0916C02F0E0E45B46
:10077000FD4F108260916C0270E0E0914A02F091AE
:100780004B028CE492E0099510926C0236C084E032
:1007900080939C021092490210924802E091460216
:1007A000F0914702099580914802811105C081E0CE
:1007B0008093480210922602E091490281E08E0F58
:1007C00080934902F0E0EA5DFD4F80818093BB0099
:1007D0009091490280914802981708F479CF85E8F2
:1007E0008093BC000AC085EC8093BC0010929C02F0
:1007F00004C010926D020E94D200FF91EF91BF9150
:10080000AF919F918F917F916F915F914F913F91A8
:100810002F910F900FBE0F901F901895CF93FC0152
:10082000C48121E020932502C093040210929E020D
:1008300010929D028385682B84E493E00E945A0104
:1008400080919D02813208F046C090919C029111E6
:10085000FCCF92E090939C0291E090939B029FEFDB
:1008600090936D0210928F0280938E02A5E0B2E009
:100870002EE632E0F9019E2F921B981718F49D91F5
:100880009193F9CF1092900280919002CC0FC82BD7
:10089000C093900280919A02813061F410929A0282
:1008A000809190028093BB008091BC0083FDF8CFC3
:1008B00085EC01C085EE8093BC0080919C02823063
:1008C000E1F380916D028F3F31F080916D028032B3
:1008D00011F080916D0210929E0210929D02109272
:1008E0002502CF9108950F931F93CF938C01C62FAC
:1008F0000E940E046C2F6460C8010E940E046C2FCD
:100900006B7FC8010E940E0483EC90E00197F1F721
:10091000CF911F910F910895FF920F931F93CF9343
:10092000DF931F92CDB7DEB78C01F62E962F907F06
:10093000692F642BC80149830E94730480E1F89EEB
:10094000B00111244981642BC8010F90DF91CF9130
:100950001F910F91FF900C94730441E00E948C044E
:1009600081E090E008950F931F93CF93DF93DC0114
:100970000AE010E020E030E012960D931D932D93D5
:100980003C93159716961C92169717961C921797DC
:1009900081E018968C9318971A961D921D921D92BD
:1009A0001C921D971E961D921D921D921C9251978E
:1009B00053961C921E92529754961C925497559699
:1009C0001C92559781E090E057969C938E93569792
:1009D00058961D921D921D921C925B975C961D92DB
:1009E0001D921D921C925F9791961C921E92909759
:1009F00092961C92929793961C92939795969C939D
:100A00008E93949711967C936E937727FB01E25512
:100A1000FF4F2491FB01E656FF4F84918823C9F0D4
:100A200090E0880F991FFC01E458FF4F45915491C5
:100A3000FC01E057FF4FC591D4919FB7F894FA019C
:100A40003081822F809583238083E8812E2B288319
:100A50009FBF12964D915D916D917C9115974115B7
:100A600051056105710529F0342F252F962F872F09
:100A700004C031E020E090E080E01A963C931A97A1
:100A80001B962C931B971C969C931C971D968C93DE
:100A90001D97411551056105710521F441E050E0B4
:100AA00060E070E058964D935D936D937C935B97F7
:100AB000DF91CF911F910F91089582EC93E00E94F6
:100AC0000002811115C086E793E00E9400028111A7
:100AD00012C088EE93E00E94000281110FC080E5F1
:100AE00093E00E940002882361F084E090E0089582
:100AF00081E090E0089582E090E0089583E090E046
:100B0000089580E090E0089560E080E00E9457083A
:100B100082E691E00E94450861E080E00E9457086B
:100B200082E691E00E9445088091A10280FD1AC0F2
:100B30008091A30280FD09C060E080E00E94570818
:100B400060E082E394E00E94AD048091A30280FF04
:100B500009C061E080E00E94570860E082E394E011
:100B60000E94AD048091A10280FF1AC08091A3026F
:100B700080FD09C061E080E00E94570860E082E3E8
:100B800094E00E94AD048091A30280FF09C060E060
:100B900080E00E94570860E082E394E00C94AD048A
:100BA0000895CF92DF92EF92FF92CF93C090A1026F
:100BB000D090A2020D2C000CEE08FF08F7FE14C026
:100BC000E091A702F091A8020190F081E02D6DE282
:100BD00087EA92E0099566277727CB016C197D0992
:100BE0008E099F094AE003C04AE0C701B6010E948E
:100BF00087080E94010860E081E00E945708809108
:100C0000A1029091A202C6E0C89FF001C99FF00D19
:100C10001124E25FFB4F448155816081718182E341
:100C200094E00E945D0661E081E00E945708809197
:100C3000A1029091A2020196C89FF001C99FF00DF8
:100C40001124E25FFB4F448155816081718182E311
:100C500094E00E945D068091A1029091A20200970B
:100C600031F461E08FE00E94570862E017C0181667
:100C70001906ECF48430910554F461E08FE00E9491
:100C8000570862E082E394E00E94AD0402C004973A
:100C900071F460E08FE00E94570861E082E394E025
:100CA000CF91FF90EF90DF90CF900C94AD04CF9157
:100CB000FF90EF90DF90CF900895CF92DF92EF9268
:100CC000FF920F931F93CF93DF936C017A018B01F7
:100CD000C0E0D0E0CE15DF0589F0D8016D918D011F
:100CE000D601ED91FC910190F081E02DC6010995AE
:100CF000892B11F47E0102C02196ECCFC701DF9150
:100D0000CF911F910F91FF90EF90DF90CF900895BA
:100D1000FC01538D448D252F30E0842F90E0821B01
:100D2000930B541710F0CF96089501970895FC0186
:100D3000918D828D981761F0828DDF01A80FB11D12
:100D40005D968C91928D9F5F9F73928F90E0089536
:100D50008FEF9FEF0895FC01918D828D981731F0F0
:100D6000828DE80FF11D858D90E008958FEF9FEF44
:100D700008950E94130F87EA92E00E94970021E0F5
:100D8000892B09F420E0822F0895EF92FF920F93B0
:100D90001F93CF93DF93EC0181E0888F9B8D8C8D27
:100DA000981305C0E889F989808185FD24C0F62E55
:100DB0000B8D10E00F5F1F4F0F731127E02E8C8DEE
:100DC000E8120CC00FB607FCFACFE889F9898081D8
:100DD00085FFF5CFCE010E948D01F1CF8B8DFE01F5
:100DE000E80FF11DE35AFF4FF0820B8FEA89FB8970
:100DF0008081806207C0EE89FF896083E889F98974
:100E000080818064808381E090E0DF91CF911F91A9
:100E10000F91FF90EF900895CF93DF93EC01888DB1
:100E20008823C9F0EA89FB89808185FD05C0A889EE
:100E3000B9898C9186FD0FC00FB607FCF5CF808174
:100E400085FFF2CFA889B9898C9185FFEDCFCE01BE
:100E50000E948D01E7CFDF91CF910895EF92FF922D
:100E60000F931F93CF93DF93EC01198218821B829B
:100E70001A821D821C8261157105A9F17B01FB019B
:100E800001900020E9F731978F01061B170BB8017D
:100E90006F5F7F4F80E090E00E94490E009759F00D
:100EA000998388831B830A832C813D81232B81F4C2
:100EB000FC0110820DC088819981009711F00E9479
:100EC000B10D198218821D821C821B821A820BC0EE
:100ED0001D830C83B701DF91CF911F910F91FF907C
:100EE000EF900C94210FDF91CF911F910F91FF9004
:100EF000EF9008951F920F920FB60F9211242F9327
:100F00003F934F935F936F937F938F939F93AF9391
:100F1000BF93EF93FF9387EA92E00E948D01FF91C8
:100F2000EF91BF91AF919F918F917F916F915F9161
:100F30004F913F912F910F900FBE0F901F901895DA
:100F40001F920F920FB60F9211242F938F939F939E
:100F5000EF93FF93E091B702F091B8028081E091A6
:100F6000BD02F091BE0282FD12C090818091C0024C
:100F70008F5F8F732091C102821751F0E091C00200
:100F8000F0E0E955FD4F958F8093C00201C080814C
:100F9000FF91EF919F918F912F910F900FBE0F9026
:100FA0001F901895EF92FF920F931F93CF93DF93AB
:100FB0001F92CDB7DEB7162F877028E0829FC00141
:100FC0001124682F606440E082E394E079830E94FA
:100FD0008C04E12E7981F72E8701085F1F4FF701FE
:100FE00061917F0182E394E00E94AD04E016F10676
:100FF000B1F70F90DF91CF911F910F91FF90EF907C
:10100000089540E061E082E394E00E948C048BE369
:101010009FE10197F1F70895CF93DF93282F30E0F8
:10102000F901EE53FF4F8491F901E255FF4FD4913E
:10103000F901E656FF4FC491CC2389F081110E943B
:10104000AE01EC2FF0E0EE0FFF1FE057FF4FA59130
:10105000B4918FB7F894EC91ED2BEC938FBFDF91A7
:10106000CF91089580E480937C0080917A00806421
:1010700080937A0080917A0086FDFCCF8091780081
:101080002091790090E0922B0895009769F0FC017F
:1010900001900020E9F73197AF01481B590BBC01C3
:1010A00082E394E00C945D0680E090E00895CF9395
:1010B000DF93CDB7DEB728970FB6F894DEBF0FBE2B
:1010C000CDBF28E0EEE1F1E0DE01119601900D9236
:1010D0002A95E1F720913A04261710F46FEF620F7A
:1010E000FE013196E60FF11DE60FF11D9081682F8C
:1010F000690F606840E082E394E028960FB6F894A8
:10110000DEBF0FBECDBFDF91CF910C948C048F92C8
:101110009F92AF92BF920F931F93CF93DF93CDB760
:10112000DEB7A1970FB6F894DEBF0FBECDBF19A2F0
:10113000423008F44AE08E010F5D1F4F842E912C3F
:10114000A12CB12CA50194010E94F40CE62FB90149
:10115000CA0101501109EA3014F4E05D01C0E95CF4
:10116000D801EC93232B242B252B61F701151105B6
:1011700071F0F80101900020E9F73197AF01401BB1
:10118000510BB80187EA92E00E945D0602C080E040
:1011900090E0A1960FB6F894DEBF0FBECDBFDF91F1
:1011A000CF911F910F91BF90AF909F908F90089516
:1011B000CF93DF93C2E3D4E02697888199810E9480
:1011C000B10D84E0CE30D807B9F7DF91CF91089503
:1011D000789484B5826084BD84B5816084BD85B512
:1011E000826085BD85B5816085BD80916E0081601E
:1011F00080936E00109281008091810082608093C4
:1012000081008091810081608093810080918000C5
:101210008160809380008091B10084608093B100F0
:101220008091B00081608093B00080917A008460EA
:1012300080937A0080917A00826080937A00809116
:101240007A00816080937A0080917A008068809330
:101250007A001092C100E091B702F091B80282E0EA
:101260008083E091B302F091B4021082E091B50264
:10127000F091B6028FEC80831092BF02E091BB0226
:10128000F091BC0286E08083E091B902F091BA024D
:10129000808180618083E091B902F091BA028081FF
:1012A00088608083E091B902F091BA028081806801
:1012B0008083E091B902F091BA0280818F7D8083B2
:1012C0001092A00210929F0210929E0210929D0214
:1012D00010929C0281E080939B0210929A0282E11C
:1012E0000E940C0883E10E940C088091B9008E7F57
:1012F0008093B9008091B9008D7F8093B90088E414
:101300008093B80085E48093BC00109237048091EC
:101310003C04823018F098E09093370480933A04AC
:1013200062E370E080E090E00E945C0260913D0426
:1013300082E394E00E940E0468EE73E080E090E0A7
:101340000E945C0260E382E394E00E947304CBE4B9
:10135000D6E4CE010197F1F760E382E394E00E94C6
:1013600073042197F1F760E382E394E00E94730431
:1013700083E592E00197F1F760E282E394E00E9456
:10138000730460913704606240E082E394E00E945D
:101390008C0484E08093380440E06CE082E394E0C5
:1013A0000E948C040E94010882E08093390440E08E
:1013B00066E082E394E00E948C0440E062E082E315
:1013C00094E00E948C048BE39FE10197F1F788E0A1
:1013D00080933D0460E082E394E00E940E040E944A
:1013E000010860E171E080E00E94D20768E071E0EE
:1013F00081E00E94D20760E071E082E00E94D207A3
:10140000C1E00E94D1050E94840580919C030E9446
:10141000D70121E0892B09F420E02093A5038091D6
:10142000A40381112C27211106C064E670E080E03E
:1014300090E00E945C020E945D058230910509F4F3
:1014400083C18330910509F4C8C10197F1F6E09199
:10145000A302F091A402EA30F10508F0FEC1EC5CB1
:10146000FF4F0C94160D0E94010860E083E00E947B
:10147000570884E691E00E9445080E943208909344
:10148000A6028093A5028631934064F464E670E07E
:1014900080E090E00E945C020E9432089093A602D5
:1014A0008093A5020E945D05049709F4D6C1E5CF9B
:1014B0000E94010860E083E00E9457088FE691E0F7
:1014C0000E9445080E9432089093A6028093A502CC
:1014D0008631934064F464E670E080E090E00E941E
:1014E0005C020E9432089093A6028093A5020E949B
:1014F0005D05049709F4B1C1E5CF0E94010860E0E1
:1015000083E00E9457088AE791E00E9445080E9404
:1015100032089093A6028093A5028631934064F42A
:1015200064E670E080E090E00E945C020E94320875
:101530009093A6028093A5020E945D05049709F48A
:101540008CC1E5CF0E94010860E083E00E9457084B
:1015500085E891E00E9445080E9432089093A60217
:101560008093A5028631934064F464E670E080E0E5
:1015700090E00E945C020E9432089093A602809341
:10158000A5020E945D05049709F467C1E5CF0E949A
:10159000010860E083E00E94570880E991E00E9422
:1015A00045080E9432089093A6028093A5028631D6
:1015B000934064F464E670E080E090E00E945C0296
:1015C0000E9432089093A6028093A5020E945D05B6
:1015D000049709F442C1E5CF0E94010860E083E06E
:1015E0000E9457088BE991E00E9445080E9432084A
:1015F0009093A6028093A5028631934064F464E63A
:1016000070E080E090E00E945C020E9432089093BB
:10161000A6028093A5020E945D05049709F41DC1EE
:10162000E5CF0E94010860E083E00E94570886EA47
:1016300091E00E9445080E9432089093A602809390
:10164000A5028631934064F464E670E080E090E0A7
:101650000E945C020E9432089093A6028093A50229
:101660000E945D05049709F4F8C0E5CF0E940108C7
:1016700060E083E00E94570881EB91E00E944508FA
:101680000E9432089093A6028093A502863193406F
:1016900064F464E670E080E090E00E945C020E94E6
:1016A00032089093A6028093A5020E945D050497DC
:1016B00009F4D3C0E5CF0E94010860E083E00E94F6
:1016C00057088CEB91E00E9445080E9432089093E5
:1016D000A6028093A5028631934064F464E670E02C
:1016E00080E090E00E945C020E9432089093A60283
:1016F0008093A5020E945D05049709F4AEC0E5CF72
:101700000E94010860E083E00E94570887EC91E0A6
:101710000E9445080E9432089093A6028093A50279
:101720008631934064F464E670E080E090E00E94CB
:101730005C020E9432089093A6028093A5020E9448
:101740005D05049739F789C02091A1023091A2026A
:101750002115310591F48091A3029091A402019783
:101760008630910514F085E090E097FF02C080E09C
:1017700090E09093A4028093A3028091A3029091A1
:10178000A40220FD11C080FD0FC021503109253079
:10179000310514F024E030E037FF02C020E030E0F3
:1017A0003093A2022093A1022091A1023091A202C3
:1017B00020FF11C080FF0FC02150310925303105B5
:1017C00014F024E030E037FF02C020E030E0309336
:1017D000A2022093A102019733C02091A10230916F
:1017E000A2028091A3029091A40220FD11C080FF6B
:1017F0000FC02F5F3F4F2530310514F024E030E05B
:1018000037FF02C020E030E03093A2022093A10213
:101810002091A1023091A20220FF11C080FD0FC0D3
:101820002F5F3F4F2530310514F024E030E037FFC3
:1018300002C020E030E03093A2022093A102019682
:101840008630910514F085E090E097FF02C080E0BB
:1018500090E09093A4028093A3020E94D1050E947D
:1018600084050E94A300CDCDE7EAF2E01382128244
:1018700088EE93E0A0E0B0E084839583A683B783ED
:101880002AE231E03183208325EC30E0358724875C
:1018900024EC30E03787268720EC30E0318B208B3A
:1018A00021EC30E0338B228B22EC30E0358B248B23
:1018B00026EC30E0378B268B118E128E138E148E11
:1018C000E4E4F3E01382128284839583A683B783D2
:1018D0008CE391E091838083E2E3F4E0138212824F
:1018E0008EE491E09183808387E2848380E1818725
:1018F00082E08287138663ED71E08EE094E00E94BF
:101900002E076DED71E084E194E00E942E0767EEF2
:1019100071E08AE194E00E942E076EEE71E080E2B1
:1019200094E00E942E0765EF71E086E294E00E9449
:101930002E076CEF71E08CE294E00E942E076CE0C1
:1019400070E088EE93E00E94B3046BE070E082ECFC
:1019500093E00E94B3046AE070E08CE993E00E9497
:10196000B30469E070E086E793E00E94B30468E0A6
:1019700070E080E593E00C94B3042F923F924F9275
:101980005F926F927F928F929F92AF92BF92CF920F
:10199000DF92EF92FF920F931F93CF93DF93CDB718
:1019A000DEB7CA1BDB0B0FB6F894DEBF0FBECDBF90
:1019B00009942A88398848885F846E847D848C8461
:1019C0009B84AA84B984C884DF80EE80FD800C816A
:1019D0001B81AA81B981CE0FD11D0FB6F894DEBF4D
:1019E0000FBECDBFED010895A1E21A2EAA1BBB1BAD
:1019F000FD010DC0AA1FBB1FEE1FFF1FA217B307DB
:101A0000E407F50720F0A21BB30BE40BF50B661FF0
:101A1000771F881F991F1A9469F7609570958095B4
:101A200090959B01AC01BD01CF010895EE0FFF1F02
:101A30000590F491E02D0994CF93DF9382309105C6
:101A400010F482E090E0E0914004F091410420E045
:101A500030E0C0E0D0E0309711F14081518148176B
:101A60005907C0F04817590761F482819381209784
:101A700019F09B838A832BC0909341048093400488
:101A800026C02115310519F04217530718F49A01A1
:101A9000BE01DF01EF010280F381E02DDCCF2115D3
:101AA000310509F1281B390B2430310590F41296C9
:101AB0008D919C9113976115710521F0FB01938322
:101AC000828304C09093410480934004FD013296C8
:101AD00044C0FD01E20FF31F81939193225031091D
:101AE0002D933C933AC020913E0430913F04232B28
:101AF00041F420911A0130911B0130933F0420934F
:101B00003E0420911801309119012115310541F44D
:101B10002DB73EB740911C0150911D01241B350B80
:101B2000E0913E04F0913F04E217F307A0F42E1B6E
:101B30003F0B2817390778F0AC014E5F5F4F241731
:101B4000350748F04E0F5F1F50933F0440933E040B
:101B50008193919302C0E0E0F0E0CF01DF91CF915B
:101B600008950F931F93CF93DF93009709F48CC0D0
:101B7000FC013297138212820091400410914104BB
:101B80000115110581F420813181820F931F20916D
:101B90003E0430913F042817390779F5F0933F044C
:101BA000E0933E0471C0D80140E050E0AE17BF079B
:101BB00050F412962D913C911397AD0121153105EA
:101BC00009F1D901F3CF9D01DA01338322836081CA
:101BD0007181860F971F8217930769F4EC012881A2
:101BE0003981260F371F2E5F3F4F318320838A8133
:101BF0009B8193838283452B29F4F0934104E093E6
:101C0000400442C01396FC93EE931297ED01499164
:101C100059919E01240F351FE217F30771F480815B
:101C20009181840F951F029611969C938E938281C9
:101C3000938113969C938E931297E0E0F0E0D80185
:101C400012968D919C911397009719F0F8018C01D1
:101C5000F6CF8D919C9198012E5F3F4F820F931F7D
:101C600020913E0430913F042817390769F43097DA
:101C700029F4109241041092400402C0138212828F
:101C800010933F0400933E04DF91CF911F910F9179
:101C90000895A0E0B0E0EFE4FEE00C94C10CEC018C
:101CA000009721F4CB010E941C0DB8C0FC01E60F87
:101CB000F71F9C0122503109E217F30708F4ACC06A
:101CC000D9010D911C91119706171707B0F0053037
:101CD000110508F49FC0C80104978617970708F4F8
:101CE00099C002501109061B170B019311936D93B4
:101CF0007C93CF010E94B10D8DC05B01A01AB10A87
:101D00004C01800E911EA0914004B091410440E02E
:101D100050E0E12CF12C109709F44AC0A815B90540
:101D2000D1F56D907C901197630182E0C80ED11CB3
:101D3000CA14DB0480F1A3014A195B096A0182E03D
:101D4000C80ED11C1296BC9012971396AC91B5E0B8
:101D5000CB16D10440F0B282A38351834083D901D2
:101D60006D937C930AC00E5F1F4FC301800F911FBC
:101D7000F90191838083EB2DFA2FE114F10431F006
:101D8000D7011396FC93EE93129744C0F09341044D
:101D9000E09340043FC08D919C91119748175907DB
:101DA00008F4AC017D0112960D90BC91A02DB3CF2B
:101DB00080913E0490913F0488159905E1F44617FF
:101DC0005707C8F48091180190911901009741F4C8
:101DD0008DB79EB740911C0150911D01841B950B3E
:101DE000E817F907C8F4F0933F04E0933E04F901C3
:101DF000718360830FC0CB010E941C0D7C01009792
:101E000059F0A801BE010E94180FCE010E94B10D29
:101E1000C70104C0CE0102C080E090E0CDB7DEB7BC
:101E2000EEE00C94DD0C81E090E0F8940C94280F27
:101E3000FB01DC0102C001900D9241505040D8F7E7
:101E40000895FB01DC0101900D920020E1F7089557
:101E500010E0CCE6D0E004C0FE010E94160D2196F1
:0A1E6000CD36D107C9F7F894FFCF83
:101E6A000404040404150E04040E150404040404F2
:101E7A000804020102040800000042048000000075
:101E8A0040001400540000000000C5065D068806E4
:101E9A000C0797009706AB06000000005A012A01BA
:101EAA008A01040122011301050100000000AD04AA
:101EBA005D068A01890100000000B9065D068A01F3
:101ECA0089012000537562204D656E7520310053DB
:101EDA007562204D656E75203200537562204D651E
:101EEA006E75203300537562204D656E752034007F
:101EFA00537562204D656E75203500537562204D0D
:101F0A00656E75203600537562204D656E752037F3
:101F1A0000537562204D656E752038005375622036
:101F2A004D656E75203900537562204D656E7520BA
:101F3A003130005365742057616B747500536574B2
:101F4A0020416C61726D004954454D20330049545B
:101F5A00454D2034004954454D2035004954454DDE
:041F6A00203600001D
:00000001FF
