:100000000C9468000C9490000C9490000C94900058
:100010000C9490000C9490000C9490000C94900020
:100020000C9490000C9490000C9490000C94900010
:100030000C9490000C9490000C9490000C94900000
:100040000C944A030C9490000C9491020C946B0253
:100050000C9490000C9490000C9490000C949000E0
:100060000C94D8040C94900072089708BC08E1081E
:1000700006092B09500975099A09BF0900000008F3
:10008000000201000003040700000000000000005F
:1000900000000000250028002B00000000002400C4
:1000A00027002A00040404040404040402020202D7
:1000B000020203030303030301020408102040802B
:1000C000010204081020010204081020830A730AA8
:1000D00011241FBECFEFD8E0DEBFCDBF23E0AAEED4
:1000E000B1E001C01D92A135B207E1F711E0A0E037
:1000F000B1E0ECEEFAE102C005900D92AA3EB10724
:10010000D9F710E0C7E6D0E004C02197FE010E94B5
:10011000570BC636D107C9F70E94AF070C94690D7B
:100120000C940000CF92DF92EF92FF920F931F93F7
:10013000CF93DF936C017A018B01C0E0D0E0CE1544
:10014000DF0589F0D8016D918D01D601ED91FC910B
:100150000190F081E02DC6010995892B11F47E01F3
:1001600002C02196ECCFC701DF91CF911F910F9173
:10017000FF90EF90DF90CF900895FC01538D448D58
:10018000252F30E0842F90E0821B930B541710F042
:10019000CF96089501970895FC01918D828D98174F
:1001A00061F0828DDF01A80FB11D5D968C91928D5B
:1001B0009F5F9F73928F90E008958FEF9FEF089558
:1001C000FC01918D828D981731F0828DE80FF11D21
:1001D000858D90E008958FEF9FEF0895FC01918D3C
:1001E000228D892F90E0805C9F4F821B91098F7335
:1001F0009927089588E692E00E94EE0021E0892B7D
:1002000009F420E0822F0895FC01848DDF01A80FFE
:10021000B11DA35ABF4F2C91848D90E001968F732E
:100220009927848FA689B7892C93A089B1898C914D
:1002300080648C93938D848D981306C00288F38913
:10024000E02D80818F7D80830895EF92FF920F9340
:100250001F93CF93DF93EC0181E0888F9B8D8C8D72
:10026000981305C0E889F989808185FD24C0F62EA0
:100270000B8D10E00F5F1F4F0F731127E02E8C8D39
:10028000E8120CC00FB607FCFACFE889F989808123
:1002900085FFF5CFCE010E940401F1CF8B8DFE01C9
:1002A000E80FF11DE35AFF4FF0820B8FEA89FB89BB
:1002B0008081806207C0EE89FF896083E889F989BF
:1002C00080818064808381E090E0DF91CF911F91F5
:1002D0000F91FF90EF900895CF93DF93EC01888DFD
:1002E0008823C9F0EA89FB89808185FD05C0A8893A
:1002F000B9898C9186FD0FC00FB607FCF5CF8081C0
:1003000085FFF2CFA889B9898C9185FFEDCFCE0109
:100310000E940401E7CFDF91CF91089580E090E043
:10032000892B29F00E94FA0081110C940000089595
:1003300085ED8093BC008091BC0084FDFCCF1092C1
:100340003302089540910D02262F30E0240F311D15
:1003500021323105DCF4209133022430C9F4FC0150
:1003600080E090E0861758F430910D022191DC0175
:10037000A551BE4FA30FB11D2C930196F3CF8091D1
:100380000D02680F60930D0280E0089581E00895EA
:1003900082E0089508958FEF9FEF08958FEF9FEF0C
:1003A00008958091EA0190E09195819591090895D1
:1003B000CF93DF9300D0CDB7DEB7CB01642F498355
:1003C0005A830E94A2014981842F5A81952F0F9050
:1003D0000F90DF91CF910895CF93DF931F92CDB708
:1003E000DEB7698361E0CE0101960E94A20181E03F
:1003F00090E00F90DF91CF910895089580E090E014
:100400000895823391056CF0833C91056CF08C3734
:1004100021E0920764F08631934064F484E090E038
:10042000089581E090E0089582E090E0089583E0EF
:1004300090E0089580E090E008950E94540DEF92BE
:10044000FF920F931F93CF93DF93EC0119821882D1
:100450001B821A821D821C8261157105A9F17B0124
:10046000FB0101900020E9F731978F01061B170B64
:10047000B8016F5F7F4F80E090E00E948A0C009788
:1004800059F0998388831B830A832C813D81232B18
:1004900081F4FC0110820DC088819981009711F0D0
:1004A0000E94F20B198218821D821C821B821A8202
:1004B0000BC01D830C83B701DF91CF911F910F916A
:1004C000FF90EF900C94620DDF91CF911F910F91EF
:1004D000FF90EF9008951F920F920FB60F92112484
:1004E0002F933F934F935F936F937F938F939F933C
:1004F000AF93BF93EF93FF9388E692E00E940401CD
:10050000FF91EF91BF91AF919F918F917F916F91EB
:100510005F914F913F912F910F900FBE0F901F90C1
:1005200018951F920F920FB60F9211242F938F934D
:100530009F93EF93FF93E0917802F091790280818D
:10054000E0917E02F0917F0282FD12C09081809145
:1005500081028F5F8F7320918202821751F0E091A8
:100560008102F0E0E859FD4F958F8093810201C030
:100570008081FF91EF919F918F912F910F900FBEEE
:100580000F901F90189590E0FC01E458FF4F3491B4
:10059000FC01E854FF4F2491FC01EC55FF4FE4911E
:1005A000EE2309F43BC0332339F1333091F038F4B2
:1005B0003130A9F0323001F584B58F7D12C037306B
:1005C00091F03830A1F03430B9F4809180008F7D03
:1005D00003C0809180008F77809380000DC084B528
:1005E0008F7784BD09C08091B0008F7703C0809160
:1005F000B0008F7D8093B000F0E0EE0FFF1FE0575A
:10060000FF4FA591B4918FB7F894EC91611103C09D
:1006100020952E2301C02E2B2C938FBF0895CF93AE
:10062000DF93EC0160E08E810E94C30261E08E8165
:100630000E94C30260E08E810E94C3028BE891E0B9
:100640000197F1F7DF91CF9108953FB7F89480912A
:100650005E0290915F02A0916002B091610226B5A6
:10066000A89B05C02F3F19F00196A11DB11D3FBFEA
:10067000BA2FA92F982F8827820F911DA11DB11D78
:10068000BC01CD0142E0660F771F881F991F4A9574
:10069000D1F708951F920F920FB60F9211242F9346
:1006A0003F938F939F93AF93BF9380915A02909102
:1006B0005B02A0915C02B0915D023091590223E08F
:1006C000230F2D3720F40196A11DB11D05C026E88A
:1006D000230F0296A11DB11D2093590280935A0247
:1006E00090935B02A0935C02B0935D0280915E02E6
:1006F00090915F02A0916002B09161020196A11DEC
:10070000B11D80935E0290935F02A0936002B0934C
:100710006102BF91AF919F918F913F912F910F9067
:100720000FBE0F901F901895CF92DF92EF92FF921D
:100730000F931F93CF93DF937C016C0187E0C80E6A
:10074000D11CC0E0D0E0062F10E0B8010C2E02C092
:10075000759567950A94E2F76170F60181916F01D2
:100760000E94C3022196C430D10579F7C701DF91F9
:10077000CF911F910F91FF90EF90DF90CF900C944D
:100780000F03CF92DF92EF92FF920F931F93CF93BD
:10079000DF93EC01F62E642F8C810E94C3028D81C1
:1007A0008F3F19F060E00E94C3028F850F2D10E08B
:1007B00084FF25C06E0187E0C80ED11CE12CF12C0E
:1007C000B8010E2C02C0759567950A94E2F7617026
:1007D000F60181916F010E94C302FFEFEF1AFF0A39
:1007E00088E0E816F10461F7CE01DF91CF911F9107
:1007F0000F91FF90EF90DF90CF900C940F03B80112
:1008000084E0759567958A95E1F7CE010E9494037F
:100810006F2DCE01DF91CF911F910F91FF90EF903F
:10082000DF90CF900C94940341E00E94C10381E0DB
:1008300090E0089560E080E00E9449078EE491E036
:100840000E94370761E080E00E9449078EE491E052
:100850000E943707909162028091640290FD04C06B
:1008600080FD04C060E003C080FDFCCF61E080E05B
:100870000E94490760E085E093E00C94140440E096
:100880000C94C10361E00E943F048BE39FE1019758
:10089000F1F70895CF92DF92EF92FF92CF93C0903D
:1008A0006202D09063020D2C000CEE08FF08F7FEE8
:1008B00014C0E0916802F09169020190F081E02D8E
:1008C0006DE288E692E0099566277727CB016C19DF
:1008D0007D098E099F094AE003C04AE0C701B601BD
:1008E0000E945E0785E093E00E94420460E081E0A0
:1008F0000E9449078091620290916302C6E0C89FFE
:10090000F001C99FF00D1124E35EFC4F4481558135
:100910006081718185E093E00E94920061E081E056
:100920000E94490780916202909163020196C89FDC
:10093000F001C99FF00D1124E35EFC4F4481558105
:100940006081718185E093E00E9492008091620253
:1009500090916302009731F461E08FE00E944907B3
:1009600062E017C018161906ECF48430910554F4AF
:1009700061E08FE00E94490762E085E093E00E9419
:10098000140402C0049771F460E08FE00E944907EC
:1009900061E085E093E0CF91FF90EF90DF90CF9002
:1009A0000C941404CF91FF90EF90DF90CF900895B6
:1009B0001F920F920FB60F9211242F933F934F93D4
:1009C0005F936F937F938F939F93AF93BF93EF93B7
:1009D000FF938091B900887F803609F49CC068F548
:1009E000883209F45BC090F4803109F454C038F4C3
:1009F000882309F4F6C0883009F44DC0F6C0883168
:100A000009F44CC0803209F45DC0EFC0803409F4B1
:100A100068C048F4803309F455C0883309F0E5C054
:100A200080933202D8C0803509F44FC0883509F46C
:100A30005DC0883409F0D9C0D6C0883909F4C7C070
:100A4000A8F4883709F467C038F4883609F463C01D
:100A5000803709F460C0C9C0883809F4B8C080394B
:100A600009F45FC0803809F0C0C05BC0803B09F466
:100A700086C038F4803A09F466C0883A09F47FC029
:100A8000B4C0803C09F4A7C0883C09F4A4C0883BEA
:100A900009F48AC0AAC08091580210C090915702F0
:100AA00080915602981770F5E091570281E08E0F01
:100AB00080935702F0E0EA5CFD4F80818093BB0099
:100AC00085EC86C0809332028EC0E091570281E0AF
:100AD0008E0F809357028091BB00F0E0EA5CFD4FDF
:100AE000808390915702809156026EC0E091570228
:100AF00081E08E0F809357028091BB00F0E0EA5CAA
:100B0000FD4F80838091350281116DC081E080931B
:100B1000340284EA61C083E0809333021092310290
:100B2000CFCF80913102803208F051C0E091310284
:100B300081E08E0F809331028091BB00F0E0EF5E88
:100B4000FD4F8083BDCF85EC8093BC0010923302B3
:100B500080913102803230F4E0913102F0E0EF5EBA
:100B6000FD4F10826091310270E0E0910F02F09130
:100B7000100281E192E009951092310236C084E0C2
:100B80008093330210920E0210920D02E0910B023C
:100B9000F0910C02099580910D02811105C081E050
:100BA00080930D021092EB01E0910E0281E08E0F16
:100BB00080930E02F0E0E551FE4F80818093BB00F0
:100BC00090910E0280910D02981708F479CF85E874
:100BD0008093BC000AC085EC8093BC001092330265
:100BE00004C0109232020E949801FF91EF91BF91D0
:100BF000AF919F918F917F916F915F914F913F91B5
:100C00002F910F900FBE0F901F90189590E0FC0150
:100C1000E854FF4F2491FC01EC55FF4F8491882349
:100C200099F090E0880F991FFC01E656FF4FA591BF
:100C3000B491FC01E057FF4F859194918FB7F894E0
:100C4000EC91E22BEC938FBF0895EF92FF920F93FC
:100C50001F93CF93DF93EC01623018F08F8588608B
:100C60008F876B8B1C8A80E48D8B80E18E8B80E577
:100C70008F8B8C810E9406068D818F3F11F00E9420
:100C800006068E810E9406067E0187E0E80EF11CB2
:100C900000E010E08F8584FD03C084E090E002C096
:100CA00088E090E00817190744F4F70181917F016B
:100CB0000E9406060F5F1F4FEDCF8BE39DE001976B
:100CC000F1F760E08C810E94C30260E08E810E9497
:100CD000C3028D818F3F19F060E00E94C3026F85CF
:100CE00064FD1DC063E0CE010E9494030BE416E492
:100CF000C8010197F1F763E0CE010E949403C80197
:100D00000197F1F763E0CE010E94940383E592E03E
:100D10000197F1F762E0CE010E94940316C0606271
:100D2000CE010E943F048BE496E40197F1F76F85B2
:100D30006062CE010E943F0483E592E00197F1F7E3
:100D40006F856062CE010E943F046F856062CE01B4
:100D50000E943F0484E0888B6CE0CE010E943F0437
:100D6000CE010E94420482E0898B66E0CE01DF91D1
:100D7000CF911F910F91FF90EF900C943F04EF9251
:100D8000FF920F931F93CF93DF931F92CDB7DEB7E0
:100D9000162F877028E0829FC0011124682F60649D
:100DA00085E093E079830E943F04E12E7981F72E5C
:100DB0008701085F1F4FF70161917F0185E093E094
:100DC0000E941404E016F106B1F70F90DF91CF9165
:100DD0001F910F91FF90EF90089580E480937C0025
:100DE00080917A00806480937A0080917A0086FDF9
:100DF000FCCF809178002091790090E0922B0895AB
:100E00008F929F92AF92BF92CF92DF92EF92FF921A
:100E10000E9425034B015C0184E6C82ED12CE12CF5
:100E2000F12C0E942503DC01CB0188199909AA093C
:100E3000BB09883E9340A105B10558F021E0C21AD4
:100E4000D108E108F10888EE880E83E0981EA11C05
:100E5000B11CC114D104E104F10419F7FF90EF9023
:100E6000DF90CF90BF90AF909F908F9008950097A4
:100E700069F0FC0101900020E9F73197AF01481BB0
:100E8000590BBC0185E093E00C94920080E090E067
:100E90000895643008F063E090911803691710F02A
:100EA0006FEF690FE62FF0E0EB5FFC4F9489682F3E
:100EB000690F606885E093E00C943F048F929F92E5
:100EC000AF92BF920F931F93CF93DF93CDB7DEB74F
:100ED000A1970FB6F894DEBF0FBECDBF19A2423066
:100EE00008F44AE08E010F5D1F4F842E912CA12C37
:100EF000B12CA50194010E94350BE62FB901CA015E
:100F000001501109EA3014F4E05D01C0E95CD80138
:100F1000EC93232B242B252B61F70115110571F080
:100F2000F80101900020E9F73197AF01401B510B08
:100F3000B80188E692E00E94920002C080E090E052
:100F4000A1960FB6F894DEBF0FBECDBFDF91CF9153
:100F50001F910F91BF90AF909F908F9008957894BC
:100F600084B5826084BD84B5816084BD85B58260AE
:100F700085BD85B5816085BD80916E00816080935F
:100F80006E001092810080918100826080938100C8
:100F900080918100816080938100809180008160D8
:100FA000809380008091B10084608093B100809133
:100FB000B00081608093B00080917A00846080935B
:100FC0007A0080917A00826080937A0080917A0022
:100FD000816080937A0080917A00806880937A00A3
:100FE0001092C100E0917802F091790282E0808352
:100FF000E0917402F09175021082E0917602F09116
:1010000077028FEC808310928002E0917C02F09155
:101010007D0286E08083E0917A02F0917B028081FC
:1010200080618083E0917A02F0917B028081886008
:101030008083E0917A02F0917B02808180688083D6
:10104000E0917A02F0917B0280818F7D808362E063
:1010500085E093E00E94250685E093E00E9442042B
:1010600060E171E080E00E94BF0668E071E081E02D
:101070000E94BF0660E071E082E00E94BF060E940D
:101080004A040E941A040E94ED069093670280931E
:1010900066028631934044F40E9400070E94ED06E8
:1010A0009093670280936602809166029091670236
:1010B0000E9401028230910509F485C183309105B7
:1010C00009F4CAC10197F9F6E0916402F091650252
:1010D000EA30F10508F000C2EC5CFF4F85E093E0D8
:1010E0000C94570B0E94420460E083E00E94490781
:1010F00080E591E00E9437070E94ED069093670219
:10110000809366028631934044F40E9400070E9457
:10111000ED0690936702809366028091660290913B
:1011200067020E940102049709F4D6C1E5CF0E942C
:10113000420460E083E00E9449078BE591E00E9451
:1011400037070E94ED06909367028093660286310E
:10115000934044F40E9400070E94ED0690936702BA
:101160008093660280916602909167020E9401025C
:10117000049709F4B1C1E5CF0E94420460E083E026
:101180000E94490786E691E00E9437070E94ED061B
:1011900090936702809366028631934044F40E94E4
:1011A00000070E94ED06909367028093660280918B
:1011B0006602909167020E940102049709F48CC1B3
:1011C000E5CF0E94420460E083E00E94490781E786
:1011D00091E00E9437070E94ED069093670280938A
:1011E00066028631934044F40E9400070E94ED0697
:1011F00090936702809366028091660290916702E5
:101200000E940102049709F467C1E5CF0E944204DD
:1012100060E083E00E9449078CE791E00E94370775
:101220000E94ED0690936702809366028631934098
:1012300044F40E9400070E94ED0690936702809399
:10124000660280916602909167020E9401020497F3
:1012500009F442C1E5CF0E94420460E083E00E94AD
:10126000490787E891E00E9437070E94ED069093B6
:101270006702809366028631934044F40E9400071F
:101280000E94ED0690936702809366028091660249
:10129000909167020E940102049709F41DC1E5CFF5
:1012A0000E94420460E083E00E94490782E991E0E5
:1012B0000E9437070E94ED069093670280936602B2
:1012C0008631934044F40E9400070E94ED069093FB
:1012D00067028093660280916602909167020E9485
:1012E0000102049709F4F8C0E5CF0E94420460E0CF
:1012F00083E00E9449078DE991E00E9437070E9430
:10130000ED0690936702809366028631934044F421
:101310000E9400070E94ED06909367028093660288
:1013200080916602909167020E940102049709F47D
:10133000D3C0E5CF0E94420460E083E00E944907E9
:1013400088EA91E00E9437070E94ED0690936702B9
:10135000809366028631934044F40E9400070E9405
:10136000ED069093670280936602809166029091E9
:1013700067020E940102049709F4AEC0E5CF0E9403
:10138000420460E083E00E94490783EB91E00E9401
:1013900037070E94ED0690936702809366028631BC
:1013A000934044F40E9400070E94ED069093670268
:1013B0008093660280916602909167020E9401020A
:1013C000049739F789C02091620230916302211598
:1013D000310591F480916402909165020197863005
:1013E000910514F085E090E097FF02C080E090E066
:1013F00090936502809364028091640290916502EB
:1014000020FD11C080FD0FC021503109253031056C
:1014100014F024E030E037FF02C020E030E03093E9
:10142000630220936202209162023091630220FFE6
:1014300011C080FF0FC0215031092530310514F053
:1014400024E030E037FF02C020E030E03093630258
:1014500020936202019733C02091620230916302AF
:10146000809164029091650220FD11C080FF0FC041
:101470002F5F3F4F2530310514F024E030E037FF77
:1014800002C020E030E0309363022093620220919A
:1014900062023091630220FF11C080FD0FC02F5FF8
:1014A0003F4F2530310514F024E030E037FF02C013
:1014B00020E030E030936302209362020196863090
:1014C000910514F085E090E097FF02C080E090E085
:1014D00090936502809364020E944A040E941A0459
:1014E0000E948E01CCCDCF93DF93C1E4D3E0269749
:1014F000888199810E94F20B83E0CD31D807B9F73A
:10150000DF91CF910895E8E6F2E01382128288EE2F
:1015100093E0A0E0B0E084839583A683B78322E2C2
:1015200031E03183208325EC30E03587248724ECBB
:1015300030E03787268720EC30E0318B208B21ECA0
:1015400030E0338B228B22EC30E0358B248B26EC81
:1015500030E0378B268B118E128E138E148EE1E4C1
:10156000F3E01382128284839583A683B78384E396
:1015700091E0918380836FEB71E08DE193E00E94B5
:101580001F0266EC71E083E293E00E941F026DECA3
:1015900071E089E293E00E941F0264ED71E08FE246
:1015A00093E00E941F026BED71E085E393E00E94DF
:1015B0001F0262EE71E08BE393E00E941F02E5E000
:1015C000F3E01382128286E491E09183808388E0C5
:1015D00084838FEF858389E0868384E0878385E039
:1015E000808786E0818787E0828713861486158648
:1015F0001686178661E0CF010C9425062F923F9244
:101600004F925F926F927F928F929F92AF92BF9212
:10161000CF92DF92EF92FF920F931F93CF93DF93BE
:10162000CDB7DEB7CA1BDB0B0FB6F894DEBF0FBE1B
:10163000CDBF09942A88398848885F846E847D8468
:101640008C849B84AA84B984C884DF80EE80FD806A
:101650000C811B81AA81B981CE0FD11D0FB6F894E0
:10166000DEBF0FBECDBFED010895A1E21A2EAA1B69
:10167000BB1BFD010DC0AA1FBB1FEE1FFF1FA21742
:10168000B307E407F50720F0A21BB30BE40BF50B3F
:10169000661F771F881F991F1A9469F760957095C8
:1016A000809590959B01AC01BD01CF010895EE0F8F
:1016B000FF1F0590F491E02D0994CF93DF938230C2
:1016C000910510F482E090E0E0914F03F091500317
:1016D00020E030E0C0E0D0E0309711F1408151814E
:1016E00048175907C0F04817590761F48281938160
:1016F000209719F09B838A832BC09093500380938B
:101700004F0326C02115310519F04217530718F46D
:101710009A01BE01DF01EF010280F381E02DDCCFF1
:101720002115310509F1281B390B2430310590F4BE
:1017300012968D919C9113976115710521F0FB0113
:101740009383828304C09093500380934F03FD01E1
:10175000329644C0FD01E20FF31F81939193225012
:1017600031092D933C933AC020914D0330914E03A3
:10177000232B41F420911A0130911B0130934E0329
:1017800020934D0320911801309119012115310545
:1017900041F42DB73EB740911C0150911D01241B0F
:1017A000350BE0914D03F0914E03E217F307A0F4DF
:1017B0002E1B3F0B2817390778F0AC014E5F5F4FA7
:1017C0002417350748F04E0F5F1F50934E03409388
:1017D0004D038193919302C0E0E0F0E0CF01DF91EF
:1017E000CF9108950F931F93CF93DF93009709F440
:1017F0008CC0FC0132971382128200914F0310912A
:1018000050030115110581F420813181820F931F4E
:1018100020914D0330914E032817390779F5F09345
:101820004E03E0934D0371C0D80140E050E0AE1785
:10183000BF0750F412962D913C911397AD012115DD
:10184000310509F1D901F3CF9D01DA0133832283F8
:1018500060817181860F971F8217930769F4EC01ED
:1018600028813981260F371F2E5F3F4F3183208318
:101870008A819B8193838283452B29F4F0935003C3
:10188000E0934F0342C01396FC93EE931297ED0141
:10189000499159919E01240F351FE217F30771F406
:1018A00080819181840F951F029611969C938E934F
:1018B0008281938113969C938E931297E0E0F0E0DF
:1018C000D80112968D919C911397009719F0F80109
:1018D0008C01F6CF8D919C9198012E5F3F4F820F26
:1018E000931F20914D0330914E032817390769F457
:1018F000309729F41092500310924F0302C01382C4
:10190000128210934E0300934D03DF91CF911F91EC
:101910000F910895A0E0B0E0E0E9FCE00C94020B28
:10192000EC01009721F4CB010E945D0BB8C0FC01D3
:10193000E60FF71F9C0122503109E217F30708F464
:10194000ACC0D9010D911C91119706171707B0F083
:101950000530110508F49FC0C80104978617970742
:1019600008F499C002501109061B170B019311933B
:101970006D937C93CF010E94F20B8DC05B01A01A86
:10198000B10A4C01800E911EA0914F03B0915003FB
:1019900040E050E0E12CF12C109709F44AC0A81562
:1019A000B905D1F56D907C901197630182E0C80E66
:1019B000D11CCA14DB0480F1A3014A195B096A0136
:1019C00082E0C80ED11C1296BC9012971396AC916F
:1019D000B5E0CB16D10440F0B282A383518340839B
:1019E000D9016D937C930AC00E5F1F4FC301800F16
:1019F000911FF90191838083EB2DFA2FE114F104FB
:101A000031F0D7011396FC93EE93129744C0F093F4
:101A10005003E0934F033FC08D919C91119748175D
:101A2000590708F4AC017D0112960D90BC91A02DD0
:101A3000B3CF80914D0390914E0388159905E1F441
:101A400046175707C8F48091180190911901009723
:101A500041F48DB79EB740911C0150911D01841B2C
:101A6000950BE817F907C8F4F0934E03E0934D0384
:101A7000F901718360830FC0CB010E945D0B7C0173
:101A8000009759F0A801BE010E94590DCE010E9495
:101A9000F20BC70104C0CE0102C080E090E0CDB7D8
:101AA000DEB7EEE00C941E0B81E090E0F8940C940D
:101AB000690DFB01DC0102C001900D9241505040C4
:101AC000D8F70895FB01DC0101900D920020E1F7A9
:101AD000089510E0C7E6D0E004C0FE010E94570B55
:0C1AE0002196C836D107C9F7F894FFCF53
:101AEC000404040404150E04040E15040404040474
:101AFC0008040201020408000000510380000000E9
:101B0C00000025019200BD006C01EE00CC00E0004D
:101B1C0000000000EC01D801FE01CA01D101CE0188
:101B2C00CB010000000014049200FE01FD01200016
:101B3C00537562204D656E75203100537562204DD2
:101B4C00656E75203200537562204D656E752033BD
:101B5C0000537562204D656E7520340053756220FC
:101B6C004D656E75203500537562204D656E752080
:101B7C003600537562204D656E75203700537562C3
:101B8C00204D656E75203800537562204D656E755D
:101B9C00203900537562204D656E75203130004937
:101BAC0054454D2031004954454D2032004954458F
:101BBC004D2033004954454D2034004954454D20A7
:0A1BCC0035004954454D2036000055
:00000001FF
